:1000000000180020C10000006D31000039310000EF
:100010003931000039310000393100003931000038
:100020003931000039310000393100006D310000F4
:100030006D310000393100006D31000029310000C0
:100040006D3100006D3100006D3100006D31000038
:100050006D3100006D3100006D3100006D31000028
:100060006D3100006D3100006D3100006D31000018
:1000700049440000D1480000594D00006D31000096
:100080006D3100006D310000611900007D19000024
:100090006D3100006D3100006D3100006D310000E8
:1000A000453500006D3100006D3100006D310000FC
:1000B0006D3100006D3100006D3100006D310000C8
:1000C00038B503F057F8454A454B1A60454A464B48
:1000D0001A60464A464B1A60464B0822197811426C
:1000E00002D019780A431A70434B2A221A7000234F
:1000F000424A43499A188A4204D24249C9580433B1
:100100001160F5E7404B41491A1F181D00238A4230
:1001100002D21360031CF6E73D493E4A5958101CB1
:1001200099500433C02BF7D100239A083A49920022
:10013000521803211940C9001568FF248C40A543BB
:100140002C1C80258D40291C214301331160202B5C
:10015000EBD1324B8A221860314B1A70314B24227A
:100160005A70A0221A709A799107FCD59A79D5060F
:10017000FCD498790C212B4A01400829F9D103219C
:100180001171402151719A799106FCD59A795506E1
:10019000FCD52549254A1160224A20211170997900
:1001A0000C220A400C2AFAD1214A224B1A60224A18
:1001B000224B1A60224B00221A60224B07221A603F
:1001C000214A224B1A6062B603F096F80AF06AF9E7
:1001D00002F0D6FF03F05CFEFEE7C046300004F0FC
:1001E00034800440823F0000388004400100000F4A
:1001F0003C80044002D0074000E0074060FDFF1F44
:1002000078FEFF1F74AE00007CFEFF1FC4140020A8
:100210000000000000F9FF1F00E400E008ED00E02E
:100220000050064000400640000001104480044099
:10023000C0000505048004407FBB000014E000E01E
:1002400018E000E010E000E00000202020ED00E0D9
:10025000FFFFFFFFFFFFFFFFFFFFFFFFFFFFFFFFAE
:10026000FFFFFFFFFFFFFFFFFFFFFFFFFFFFFFFF9E
:10027000FFFFFFFFFFFFFFFFFFFFFFFFFFFFFFFF8E
:10028000FFFFFFFFFFFFFFFFFFFFFFFFFFFFFFFF7E
:10029000FFFFFFFFFFFFFFFFFFFFFFFFFFFFFFFF6E
:1002A000FFFFFFFFFFFFFFFFFFFFFFFFFFFFFFFF5E
:1002B000FFFFFFFFFFFFFFFFFFFFFFFFFFFFFFFF4E
:1002C000FFFFFFFFFFFFFFFFFFFFFFFFFFFFFFFF3E
:1002D000FFFFFFFFFFFFFFFFFFFFFFFFFFFFFFFF2E
:1002E000FFFFFFFFFFFFFFFFFFFFFFFFFFFFFFFF1E
:1002F000FFFFFFFFFFFFFFFFFFFFFFFFFFFFFFFF0E
:10030000FFFFFFFFFFFFFFFFFFFFFFFFFFFFFFFFFD
:10031000FFFFFFFFFFFFFFFFFFFFFFFFFFFFFFFFED
:10032000FFFFFFFFFFFFFFFFFFFFFFFFFFFFFFFFDD
:10033000FFFFFFFFFFFFFFFFFFFFFFFFFFFFFFFFCD
:10034000FFFFFFFFFFFFFFFFFFFFFFFFFFFFFFFFBD
:10035000FFFFFFFFFFFFFFFFFFFFFFFFFFFFFFFFAD
:10036000FFFFFFFFFFFFFFFFFFFFFFFFFFFFFFFF9D
:10037000FFFFFFFFFFFFFFFFFFFFFFFFFFFFFFFF8D
:10038000FFFFFFFFFFFFFFFFFFFFFFFFFFFFFFFF7D
:10039000FFFFFFFFFFFFFFFFFFFFFFFFFFFFFFFF6D
:1003A000FFFFFFFFFFFFFFFFFFFFFFFFFFFFFFFF5D
:1003B000FFFFFFFFFFFFFFFFFFFFFFFFFFFFFFFF4D
:1003C000FFFFFFFFFFFFFFFFFFFFFFFFFFFFFFFF3D
:1003D000FFFFFFFFFFFFFFFFFFFFFFFFFFFFFFFF2D
:1003E000FFFFFFFFFFFFFFFFFFFFFFFFFFFFFFFF1D
:1003F000FFFFFFFFFFFFFFFFFFFFFFFFFFFFFFFF0D
:10040000FFFFFFFFFFFFFFFFFFFFFFFFFEFFFFFFFD
:1004100010B5064C2378002B07D1054B002B02D0DA
:10042000044800E000BF0123237010BD78FEFF1FC9
:100430000000000074AE000008B5084B002B03D08C
:100440000748084900E000BF07480368002B03D0B5
:10045000064B002B00D0984708BDC04600000000A6
:1004600074AE00007CFEFF1F78FEFF1F000000003E
:100470000020704737B5036800241D686B461C7068
:100480005C709C7001AB0A1C1C705C709C706946AF
:10049000A84737BDC8204000704737B5036800241F
:1004A0001D686B461C705C709C7001AB0A1C1C7054
:1004B0005C709C706946A84737BDC82040007047F3
:1004C00037B5036800241D686B461C705C709C7017
:1004D00001AB0A1C1C705C709C706946A84737BD54
:1004E000C82040007047FFFF10B59023084C5B0008
:1004F000E01801F085FA201CC03001F081FA201CC0
:10050000603001F07DFA201C01F07AFA10BDC0467F
:10051000B80C002010B59023084C5B00E01801F0E7
:100520006FFA201CC03001F06BFA201C603001F023
:1005300067FA201C01F064FA10BDC04618100020B4
:1005400010B50121041C072002F078FE0423A361EA
:10055000014BE36110BDC046C00000F810B5012199
:10056000041C052002F06AFE8023A361014BE361B5
:1005700010BDC046C00000F810B50121041C0320C6
:1005800002F05CFE0223A361F8231B06E36110BDA9
:10059000F8B5304B0122304C1A70002222702378BB
:1005A000032B0BD8D8015B02C3182C482C49C01868
:1005B00002F0D6F9237801332370F0E7002323708B
:1005C0002078052824D814267043254D281802F0D9
:1005D00078FB002819D0234B234F1A68002A04D136
:1005E00022785643AE191E6007E03868002804D010
:1005F00021784E43A91902F09BFC2378142058431C
:1006000001212818386002F06BFB23780133D6E70C
:10061000164C201C02F06CFA201C02F009FB0F4D56
:10062000F023DB00E81802F025FAA0229200071C54
:10063000A81802F01FFA061C281C02F01BFA321C34
:10064000031C391C201C02F0F5FA024A0023137027
:10065000F8BDC046A00C0020B00C0020980200207D
:100660009C0F0020A40C0020380E0020400E00201B
:10067000F8B5162002F006FD08F088F81A4E1B4C5B
:10068000336820601A4DDB0709D4301C02F083FD6B
:10069000002804D02368301C2B6002F080FD154E2A
:1006A0003378632B0FD92868134907F0AFFD13493E
:1006B000071C206807F0AAFD011C381C07F056FA39
:1006C0000023286033703378206801333370296841
:1006D00007F0C6FE002320600133DBB2032BFBD9F9
:1006E000074A1370F8BDC046A011002098110020E1
:1006F00014100020990F002072F97F3F17B7D138EE
:100700009A0F00200E4BF022D20070B59C180D4AB3
:100710009E1880229200A01801F072F9002C04D1DA
:10072000084BE418B442F4D170BDF0235B00E51827
:10073000A542F5D0183D281C01F096FEF8E7C0460A
:100740009802002080FDFFFF0D4B00220360FF2375
:10075000037343738373C3730374437401238374F8
:10076000084B4260426182601A68002A00D118601A
:10077000054A1368002B00D0986010607047C0468F
:1007800070A70000B0110020C0110020FFFFFFFF84
:10079000F0B5ED4BBBB01A68EC4B64201A6002F068
:1007A00091FDEB4DEB4B2968002201261A700E409B
:1007B000E94C96420DD1281C02F0EDFC002808D02F
:1007C000201CFFF7C1FFE54B2684281C236002F0A4
:1007D000E6FCE34D201C6422291C002300F0D8FF16
:1007E000E04E01273268E04C17400DD1301C02F07A
:1007F000D2FC002808D0201CFFF7A6FFDB4B278483
:10080000301C236002F0CBFC96235B00E918201C0F
:100810006422002300F0BCFFD54E01273468274036
:10082000D44C0DD1301C02F0B6FC002808D0201C9E
:10083000FFF78AFFD04B2784301C236002F0AFFC07
:1008400096229200A91800236422201C00F0A0FF29
:10085000CA4C0021201C00F071FF2178201C0024CC
:1008600000F0F8FE0994099C14236343C448E2B2E3
:10087000C018C44B5108009301342B1C02F00FFA2E
:100880000994062CEFD1C04B00271F60BF4B974A3D
:1008900095491F6000910192954C964D0422029457
:1008A00003950492391C944A944BB94801F098FD81
:1008B0008E4A8D490091019204220294039504927C
:1008C000391C8F4A8F4BB34801F08AFD874A86490D
:1008D000AF480226009101928B4A8C4B02940395FB
:1008E0000496311C603001F07BFD804B7E4AA948A4
:1008F0000294039500920193854A864B0496311C1D
:10090000603001F06DFD794A7749A148009101926C
:10091000814A824B029403950496311CC03001F049
:100920005FFD724B704A9B480294039500920193BD
:100930007B4A7C4B0496311CC03001F051FD6B4A60
:100940006949934800910192213001220294039554
:100950000492111CFF30744A744B01F041FD634A4C
:1009600061498C4800910192213001220294039543
:10097000111C0492FF306E4A6E4B01F031FD0AA843
:1009800001F00AF86C4A6D4B02940395402522ACA5
:10099000009201936A4A6B4B04950AA8391C01F036
:1009A0001FFD0AA9201C602209F0B6FD1823009340
:1009B0001421242301930391774B78490122029457
:1009C000049205933A1C0C2306917548072101F007
:1009D0009BFD201C01F014F80AA9201C602209F0DC
:1009E0009BFD6F4AA0239B00D018122300930F2376
:1009F0000393694A694B182101910294099904965D
:100A0000059206932D22392301F07EFD201C00F073
:100A1000F7FF0AA9201C602209F07EFD60490E2321
:100A2000A0220093D2001423881801935A495B4AEC
:100A30000A23039303230294049305917F23311C1B
:100A40000692732201F060FD201C00F0D9FF0AA974
:100A5000201C602209F060FD082300930C23019301
:100A6000142303934C4A4D4B0421029404910592A4
:100A700001218C2206934B48982301F045FD201C50
:100A800000F0BEFF464801F0D9FF041C454801F0C4
:100A9000D5FF201A07F07AFE011C07F067F8424BD9
:100AA000391C1860162002F0C9FB404B96221F70BB
:100AB0003F4B52011A803F4B3F481C6828212C4075
:100AC0000C431F6002601C601C681F600260221CD7
:100AD0002A4011431960394A39493A4811601A6865
:100AE00072E0C046C046C046000000000000004062
:100AF0000000000000001840000000E051B8CE3FA8
:100B0000000000C07493C83F0000002085EBD13F77
:100B10000000004060E5D03F000000E051B8DE3F3B
:100B2000000000C0F528DC3F000000A09999D93FE3
:100B3000000000A047E1DA3F00000080BE9FE63FD2
:100B4000000000E04D62C03FD8110020980C00204A
:100B50000CFFFF1FA00C0020E0FEFF1F90A700006D
:100B600010FFFF1F08FFFF1FBCFEFF1FB0A7000004
:100B700004FFFF1F98FEFF1FD0A70000A811002050
:100B80009C0F0020400E0020A40C0020380E0020F6
:100B900018100020B80C00209C0C0020A41100208C
:100BA00098020020180A002064FDFF1FC8110020D1
:100BB000CA1100200090034008900340C411002097
:100BC0007106000008A0034014492A431A60144A21
:100BD0008023DB021360134B134C1E70134B1980E0
:100BE000134B2A211E681F602E400E4304601E60B6
:100BF0001E681F600460301C2840014319600D48C6
:100C00000D49086019680AA80D431D6080231B0365
:100C1000136000F0F5FE3BB0F0BDC046A08CFFFFB6
:100C200000E100E0D2110020A08C0000D0110020D3
:100C300000A0034091050000CC110020C046C04632
:100C400013B5012009F054FC041C09F05BFC01A859
:100C5000001B16BD30B587B0FFF7F2FF334C011C07
:100C60000022201C03F02EF9201C03F019F9304B50
:100C70001B78002B03D0012002F024FBF7E72D4D59
:100C800001222D4C2A7023702378052B1FD8032BAB
:100C90001AD8D8015B02C31828482949C018294B23
:100CA000294A0093294B0193294B0293294B039323
:100CB000294B0493294B0593294B01F0A1FC0028F3
:100CC00002D1012002F0FEFA23780133DBE7002392
:100CD00023702378032B0AD8D8015B02C318174866
:100CE000C01801F0AFFE237828700133F0E72B78AD
:100CF000002B14D0002323702378032B09D8D801AC
:100D00005B02C3180D48C01801F0AAFE2378013316
:100D1000F1E70E4C0A21206806F0CAFD2060114858
:100D2000017800F097FC07B030BDC046D01200201B
:100D3000A00C0020A80C00209C110020980200208C
:100D400064FDFF1F3C0E0020A40C00209C0C002022
:100D5000980F0020AC0C0020380E0020A4110020B9
:100D60009C0F0020A811002010B5041C02F086FA88
:100D70002388C01A80B23128F8D910BD10B5041CE0
:100D800002F07CFA208010BDF0B585B0029003918E
:100D90000093002494460193221C251C261C0A9FC4
:100DA000644665787A7812062D0601D15240C04615
:100DB000AD1800D3ED4300D32D063C792D0E6543CD
:100DC0007A78FC79A21A7A702E044160C046C04637
:100DD0000324013CFDD1760000D28160C046C046AC
:100DE000C0460824013CFDD18160C046C0460524B0
:100DF000013CFDD14160C046C0460324013CFDD109
:100E0000760000D28160C04664462578C046C04660
:100E10000724013CFDD18160C046C0460524013C49
:100E2000FDD14160C046C0460324013CFDD176009F
:100E300000D28160C0463A7812062D0601D1524098
:100E4000C046C0460624013CFDD18160C046C04674
:100E50000524013CFDD14160C046C0460324013C4D
:100E6000FDD1760000D28160C046AD1800D3ED43BD
:100E700000D32D060724013CFDD18160C046C04649
:100E80000524013CFDD14160C046C0460324013C1D
:100E9000FDD1760000D28160C046FC782D0E6543FE
:100EA000C0460724013CFDD18160C046C0460524F0
:100EB000013CFDD14160C046C0460324013CFDD148
:100EC000760000D28160C0463A78BC79A21A3A70A6
:100ED000C0460624013CFDD18160C046C0460524C1
:100EE000013CFDD14160C046C0460324013CFDD118
:100EF000760000D28160C046C046C0460824013C4E
:100F0000FDD18160C046C0460524013CFDD1416051
:100F1000C046C0460324013CFDD1760000D281606A
:100F2000C0462E04C0460824013CFDD18160C04665
:100F3000C0460524013CFDD14160C046C0460324A3
:100F4000013CFDD1760000D28160C046C046C0465B
:100F50000824013CFDD18160C046C0460524013C07
:100F6000FDD14160C046C0460324013CFDD176005E
:100F700000D28160C0466446A578C046C0460724BA
:100F8000013CFDD18160C046C0460524013CFDD135
:100F90004160C046C0460324013CFDD1760000D22A
:100FA0008160C046BA7812062D0601D15240C04673
:100FB000C0460624013CFDD18160C046C0460524E0
:100FC000013CFDD14160C046C0460324013CFDD137
:100FD000760000D28160C046AD1800D3ED4300D347
:100FE0002D060724013CFDD18160C046C046052482
:100FF000013CFDD14160C046C0460324013CFDD107
:10100000760000D28160C0467C792D0E6543C046D3
:101010000724013CFDD18160C046C0460524013C47
:10102000FDD14160C046C0460324013CFDD176009D
:1010300000D28160C046BA783C7AA21ABA70C04623
:101040000624013CFDD18160C046C0460524013C18
:10105000FDD14160C046C0460324013CFDD176006D
:1010600000D28160C0467C7AA444C046C0460724B2
:10107000013CFDD18160C046C0460524013CFDD144
:101080004160C046C0460324013CFDD1760000D239
:101090008160C0462E04C0460824013CFDD1816019
:1010A000C046C0460524013CFDD14160C046C04653
:1010B0000324013CFDD1760000D28160C046C046C9
:1010C000C0460824013CFDD18160C046C0460524CD
:1010D000013CFDD14160C046C0460324013CFDD126
:1010E000760000D28160C04664466578C046C0463E
:1010F0000724013CFDD18160C046C0460524013C67
:10110000FDD14160C046C0460324013CFDD17600BC
:1011100000D28160C0467A7812062D0601D1524075
:10112000C046C0460624013CFDD18160C046C04691
:101130000524013CFDD14160C046C0460324013C6A
:10114000FDD1760000D28160C046AD1800D3ED43DA
:1011500000D32D060724013CFDD18160C046C04666
:101160000524013CFDD14160C046C0460324013C3A
:10117000FDD1760000D28160C0463C792D0E6543DA
:10118000C0460724013CFDD18160C046C04605240D
:10119000013CFDD14160C046C0460324013CFDD165
:1011A000760000D28160C0467A78FC79A21A7A7003
:1011B000C0460624013CFDD18160C046C0460524DE
:1011C000013CFDD14160C046C0460324013CFDD135
:1011D000760000D28160C046C046C0460824013C6B
:1011E000FDD18160C046C0460524013CFDD141606F
:1011F000C046C0460324013CFDD1760000D2816088
:10120000C0462E04C0460824013CFDD18160C04682
:10121000C046C0460324013CFDD1013B01D0C0467D
:10122000D3E5009805B0F0BD7FB5037A03A90B7034
:10123000437A4B70837A8B70837BCB70C37B0B714B
:10124000037C4B71C37A8B71037BCB71437B0B7235
:10125000437C4B720CC8009103480421FFF794FDB6
:10126000002007B000BDC046C00000F87FB5037A7B
:1012700003A90B70437A4B70837A8B70837BCB709E
:10128000C37B0B71037C4B71C37A8B71037BCB7176
:10129000437B0B72437C4B720CC800910348802146
:1012A000FFF772FD002007B000BDC046C00000F887
:1012B0007FB5037A03A90B70437A4B70837A8B70E6
:1012C000837BCB70C37B0B71037C4B71C37A8B71B7
:1012D000037BCB71437B0B72437C4B720CC8F820B1
:1012E000009100060221FFF74FFD002007B000BD6E
:1012F00070B5174B07211A7801320A401A70012382
:1013000013408B40910701D540210B4304210A4231
:1013100001D0202213431033DEB2041C0025A17B30
:101320000020814205D08020400006F00FFB0130F4
:10133000C0B2031C73431B12E0722372002801D059
:101340000138E07201350134032DE8D170BDC0468B
:1013500094FEFF1F08B5012902D1FFF7C9FF06E07F
:10136000002343730373C37283724372037208BD15
:1013700070B586B001AC62601A780191A2735A7898
:10138000867CE2739B78051C311C201C203523745D
:10139000FFF7E0FF0023281C6374FFF7E5FC72B63B
:1013A000201CFFF741FF62B6281CFFF7E7FC06B0E0
:1013B00070BD70B586B001AC62601A780191A273FD
:1013C0005A78867CE2739B78051C311C201C2035E2
:1013D0002374FFF7BFFF0023281C6374FFF7C4FCCE
:1013E00072B6201CFFF742FF62B6281CFFF7C6FC4E
:1013F00006B070BD70B586B001AC62601A7801911C
:10140000A2735A78867CE2739B78051C311C201CE1
:1014100020352374FFF79EFF0023281C6374FFF719
:10142000A3FC72B6201CFFF743FF62B6281CFFF72F
:10143000A5FC06B070BD70B586B001AC62601A78CC
:101440000191A2735A78867CE2739B78051C311C4B
:10145000201C20352374FFF77DFF0323281C6374B1
:10146000FFF782FC72B6201CFFF7DEFE62B6281C76
:10147000FFF784FC06B070BD70B586B001AC626049
:101480001A780191A2735A78867CE2739B78051CC6
:10149000311C201C20352374FFF75CFF0323281C1C
:1014A0006374FFF761FC72B6201CFFF7DFFE62B6C3
:1014B000281CFFF763FC06B070BD70B586B001ACA8
:1014C00062601A780191A2735A78867CE2739B78E5
:1014D000051C311C201C20352374FFF73BFF032320
:1014E000281C6374FFF740FC72B6201CFFF7E0FE77
:1014F00062B6281CFFF742FC06B070BD70B52548E7
:1015000001F0BCFA244B1C1C1D1C14348C35201C0F
:101510001438143401F0C2FBAC42F8D11F4BF02256
:101520001C1C520060349D18201C6038603400F090
:1015300033FAAC42F8D11A4D00202A1C194908F0A0
:1015400093FF194BF0221C1C520060349E18201C83
:101550006038603400F020FAB442F8D12A1C002030
:10156000124908F081FF124BA02292009C18C82259
:1015700012019E180F4BE01800F0B2FFA02292005B
:10158000A418B442F6D12A1C0B49002008F06CFFC5
:1015900070BDC046400E00209C0F00201810002097
:1015A00060FDFF1F15050000B80C0020E9040000D5
:1015B0009802002080FDFFFF05070000002330B5E2
:1015C0000370437083709A4211D00C1C0C34E55C9C
:1015D0000334E45C002D07D0002C05D00135013424
:1015E0006C435443240CC4540133032BEDD130BD60
:1015F000084B10B51C68002C0AD06068002805D084
:10160000636903225A43002108F08FFFA468F2E7C0
:1016100010BDC046B0110020F8B50B4C071C226865
:10162000531C23608A420EDB084E094DFA208000CD
:10163000316858432B68C91A06F03AF93668002316
:10164000788023602E60F8BDB4110020D8110020EE
:10165000BC110020F0B587B0051C03916B68184CD5
:10166000002B06D001F00AFE2368C01A6B6898426E
:10167000F4D301F003FE134B20601C68002C19D03A
:10168000A37C01936B88632B01D80023A374236888
:1016900067685E686369211C05A8039A0293FFF7D7
:1016A0008DFF201C05AB391C029AB047019BA37427
:1016B000A468E3E7281C1921FFF7AEFF07B0F0BDCF
:1016C000B8110020B0110020F0B587B0051C0291C0
:1016D00003926B68174C002B06D001F0CFFD2368F6
:1016E000C01A6B689842F4D301F0C8FD124B206019
:1016F0001C68002C17D0A37C01936B88632B01D846
:101700000023A37423686769211C05A8039A1E6837
:10171000FFF754FF201C05AB02993A1CB047019B10
:10172000A374A468E5E7281C1921FFF775FF07B02B
:10173000F0BDC046B8110020B011002013B5041C44
:10174000002906D001A900220A704A708A70FFF7AA
:10175000BBFF201CFFF74CFF13BDFFFF10B5041C9F
:10176000002A09D000290FD0084806F0EFF8636876
:10177000984206D2181C04E0002904D0034806F061
:10178000E5F8606000E0416010BDC04640420F00D7
:10179000F8B5041C0F1C161C1D1E01DC151C0026B0
:1017A0002368201C9B68984703235E432368BF1966
:1017B000676065611B69201C98470122011C024873
:1017C000FFF7CCFF201CF8BDA8110020024BFF2220
:1017D0001A7000225A807047A811002070B51C1C96
:1017E0000678651EAC410025E4B2AE4204D01D1C53
:1017F00075432D126519EDB205700D7800208542F4
:1018000004D0181C684300122018C0B20870107869
:101810000021884203D043431B12E418E1B2117047
:1018200070BDF0B585B0019101781F2342780B405F
:10183000DB0000929C468578552360464343402652
:101840006C466A4648B21B0A0D340E320E40002820
:1018500023DB20200140002E0BD1002902D1D843E8
:10186000207011E05533AB2113706B462170DE738D
:101870003EE000290CD16046AA2646435520361288
:101880004042801B2070553B13706B46D9732FE08C
:1018900000212170D94311701FE0202768460F30C6
:1018A0003940002E10D100290AD12170AA236146A7
:1018B0004B4355211B0A4942C91A1170553316E092
:1018C00023701670DB4312E0002909D1181C553033
:1018D0002070117055225242D31A6A46D37307E022
:1018E000191C55392170002111705522D31A03702B
:1018F000009AFF2A17D06F466E460E370F36201C0F
:10190000321C009B391CFFF769FF00982278C34303
:10191000DBB25B431B0A9A1822703A789A183A7025
:1019200032789B1833706F466E466C460D370E3614
:101930000F34FF2D0BD02B1C6D435A1E93412D12DB
:101940005B19DBB2381C311C221CFFF747FF0199E1
:101950003B780B7033784B7023788B7005B0F0BDFB
:1019600008B5044B1A68110600D51A60024B1B68B3
:10197000984708BD00900340C411002008B5044BEF
:101980001A68110600D51A60024B1B68984708BDFB
:1019900000A00340CC11002030B5124D104C0023A4
:1019A0000360114A114B8260C360114A114B82627D
:1019B000C362026243628261C36102614361026485
:1019C0004364026543658264C364031C5833012287
:1019D00004634563084C094D8463C5631A8030BDB8
:1019E000000000000000E03F000000000000F03FA9
:1019F000000000000000000000000080BE9FE63FE5
:101A00007047FFFFFFFFFFFFF0B591B00590406CFE
:101A1000059C43005908206CB84BB74A07F084FA7C
:101A2000021C0B1CB648B74903F036FCB64AB74B4C
:101A300006900791206B616B07F0E0FE03F0F8FB66
:101A4000061C20680F1C062801D900F0BAFC05F01E
:101A500025FF07005D00A700F9006B015C029603FB
:101A6000059C301CA26BE36B07F05EFA321C0890F9
:101A700009913B1C301C391C07F0C0FEA44AA54B41
:101A8000061C0F1C0898099906F02CFF321C3B1C01
:101A900006F028FF021C0B1C9D489E4907F044FAE3
:101AA00006900791069A079B301C391C07F0A6FE8A
:101AB000041C05980D1C8460C560221C201C2B1C76
:101AC00006F010FF059A106151619461D561904A4A
:101AD000904B301C391C08F021F9021C0B1C06F03D
:101AE00001FF069A079B07F089FE089A099B059C4F
:101AF000206261628648874908F010F9321C3B1C5D
:101B000006F0F0FE069A079B00F056FC059C301C80
:101B1000A26BE36B07F008FA321C069007913B1C9E
:101B2000301C391C07F06AFE794A7A4B061C0F1CE0
:101B30000698079906F0D6FE321C3B1C06F0D2FE32
:101B4000021C0B1C7248734907F0EEF9724A734B82
:101B5000041C05980D1C8460C560201C07F04EFE17
:101B6000059A106151619461D561694A694B301CD5
:101B7000391C08F0D3F8021C0B1C06F0B3FE221C23
:101B80002B1C07F03BFE059A10625162069A079BD8
:101B90005F48604908F0C2F8321C3B1C00F008FCAA
:101BA000059C301CA26BE36B07F0BEF9321C041CD1
:101BB0000D1C3B1C301C391C07F020FE544A554BB1
:101BC00006900791201C291C06F08CFE069A079BA4
:101BD00006F088FE021C0B1C4D484E4907F0A4F984
:101BE000061C0F1C321C3B1C201C291C07F006FE87
:101BF0000190021C05980B1C8260C360484A494B47
:101C0000026143618023019A1B06C9188261C16188
:101C10003F4A404B0698079908F080F8021C0B1CBD
:101C200006F060FE321C3B1C07F0E8FD059A2B1CF9
:101C30001062516236483749221C08F06FF8069A44
:101C4000079B53E0059C301CA26BE36B07F06CF91B
:101C5000321C069007913B1C301C391C07F0CEFD4E
:101C60002B4A2C4B041C0D1C0698079906F03AFED3
:101C7000221C2B1C06F036FE021C0B1C2448254996
:101C800007F052F9224A234B061C0F1C201C291C6A
:101C900006F028FE321C3B1C07F0B0FD059A0890A8
:101CA00009919060D1601A4A1A4B201C291C08F037
:101CB00035F8021C0B1C06F015FE321C3B1C07F00D
:101CC0009DFD059B0290039118615961089809993F
:101CD0009861D9610298039918625962069A079B24
:101CE0000B480C4908F01AF8221C2B1C06F0FAFDD0
:101CF000321C3B1C60E3C046000000000000344082
:101D0000000000000000244000000060FB210940AA
:101D1000000000000000F03F00000000000000C0D4
:101D20000000000000000000059CC64BC44A206C67
:101D3000616C05F0A1FE059CE56BA46B002800D149
:101D400073E0221C2B1CC048C04907F0EDF8321C80
:101D50003B1C07F053FD321C0C900D913B1C301CBA
:101D6000391C07F04BFDB84AB84B089009910C9804
:101D70000D9906F0B7FD089A099B06F0B3FD021C09
:101D80000B1CB148B14907F0CFF8221C2B1C0A905C
:101D90000B910698079907F0C7F8321C3B1C07F017
:101DA0002DFDA94AA94B061C0F1C06F09BFD089AA5
:101DB000099B06F097FD0A9A0B9B07F01FFDA24AAC
:101DC000A24B059CA060E1600898099907F0A6FF66
:101DD000021C0B1C06F086FD0A9A0B9B07F00EFDF9
:101DE000041C05980D1C0461456197489749321CF5
:101DF0003B1C07F093FF089A099B06F073FD0A9AB3
:101E00000B9B07F0FBFC059A9061D1618E488F49CE
:101E1000146255620C9A0D9B07F080FF089A099B8B
:101E200006F060FD0A9A0B9BC6E2221C2B1C06984A
:101E3000079907F079F8321C3B1C07F0DFFC321CD5
:101E40000A900B913B1C301C391C07F0D7FC7E4AD2
:101E50007E4B069007910A980B9906F043FD069A6F
:101E6000079B06F03FFD021C0B1C7748774907F0E3
:101E70005BF8221C2B1C089009917348734907F0EA
:101E800053F8321C3B1C07F0B9FC6F4A6F4B061C21
:101E90000F1C06F027FD069A079B06F023FD089A03
:101EA000099B07F0ABFC684A684B059CA060E160A9
:101EB0000698079907F032FF021C0B1C06F012FD72
:101EC000089A099B07F09AFC041C05980D1C0461F4
:101ED00045615D485D49321C3B1C07F01FFF069AB7
:101EE000079B06F0FFFC089A099B07F087FC059A00
:101EF0009061D16154485549146255620A9A0B9B0E
:101F000007F00CFF069A079BC7E1059C4D4B4C4A16
:101F1000206C616C05F0B0FD002800D19CE04C4ABB
:101F20004C4B301C391C07F069FC321C0A900B9199
:101F30003B1C301C391C07F061FC434A434B0890A2
:101F400009910A980B9906F0CDFC089A099B06F0B6
:101F5000C9FC021C0B1C3C483C4906F0E5FF041C74
:101F60000D1C06980799021C0B1C06F0BBFC0C907C
:101F70000D9103F049FB321C0E900F9106980799C2
:101F80003B1C07F03BFC321C3B1C07F037FC321CAF
:101F9000069007910E980F993B1C07F02FFC2A4AD8
:101FA0002A4B06F09FFC069A079B06F09BFC221C1E
:101FB0002B1C07F023FC059A9060D160224A234B2A
:101FC0000698079907F0AAFE021C0B1C06F08AFC73
:101FD000221C2B1C07F012FC059B186159610C9800
:101FE0000D9903F011FB321C3B1C07F007FC021C8F
:101FF0000B1C1548154907F091FE069A079B06F041
:1020000071FC221C2B1C07F0F9FB059A9061D16131
:102010000D4A0E4B0898099907F080FE021C0B1C14
:1020200006F060FC221C2B1C07F0E8FB059B1862E5
:102030005962054805490A9A0B9BB5E1C046C0465E
:102040000000000000000000000000000000F03F61
:10205000CD3B7F669EA0F63F06980799021C0B1C9D
:1020600006F040FC0A900B9103F0CEFA321C041CDF
:102070000D1C3B1C0698079907F0C0FB321C3B1C4B
:1020800007F0BCFB321C069007913B1C201C291C4E
:1020900007F0B4FBCD4BCC4A06F024FC069A079B14
:1020A00006F020FC021C0B1CC849C74806F03CFF88
:1020B000C74AC84B041C0D1C301C391C07F09EFB82
:1020C000321C0C900D913B1C301C391C07F096FB08
:1020D000BE4BBD4A089009910C980D9906F002FC80
:1020E000089A099B06F0FEFB221C2B1C07F086FBBE
:1020F000059A9060D160B54BB34A0898099907F0EA
:102100000DFE021C0B1C06F0EDFB221C2B1C07F025
:1021100075FB059B186159610C9A0D9BAB49AA4848
:1021200007F0FCFD089A099B06F0DCFB221C2B1C27
:1021300007F064FB059A9061D161A44BA24A06980E
:10214000079907F0EBFD021C0B1C06F0CBFB221CD1
:102150002B1C07F053FB059B186259620A980B99D8
:1021600003F052FA321C3B1C07F048FB021C0B1C0C
:102170009649954807F0D2FD069A079B18E1059C01
:10218000954A964B206C616C05F076FC002800D1D6
:1021900088E08F4A8F4B301C391C07F02FFB321C14
:1021A0000A900B913B1C301C391C07F027FB874B16
:1021B000854A041C0D1C0A980B9906F093FB221CFF
:1021C0002B1C06F08FFB021C0B1C80497E4806F07E
:1021D000ABFE0890099106980799021C0B1C06F0AB
:1021E00081FB0C900D9103F00FFA321C3B1C07F0A1
:1021F00005FB021C0B1C0698079906F073FB221CBA
:102200002B1C06F06FFB089A099B07F0F7FA059A5A
:102210009060D160069A079B201C291C07F07EFD68
:10222000021C0B1C06F05EFB089A099B07F0E6FAFD
:10223000059B186159610C980D9903F0E5F9321C62
:102240003B1C07F0DBFA021C0B1C0698079907F0F1
:1022500065FD221C2B1C06F045FB089A099B07F024
:10226000CDFA059A9061D161584B574A201C291C20
:1022700007F054FD021C0B1C06F034FB089A099B66
:1022800007F0BCFA059B186259620A9A0B9B4F49EA
:102290004D4807F043FD221C2B1C06F023FB089A37
:1022A000099B89E006980799021C0B1C06F01AFB93
:1022B0000A900B9103F0A8F9321C041C0D1C3B1C66
:1022C000301C391C07F09AFA321C089009913B1C0B
:1022D000201C291C07F092FA021C0B1C0698079977
:1022E00006F000FB089A099B06F0FCFA021C0B1C86
:1022F0003649354806F018FE354A364B041C0D1C8D
:10230000301C391C07F07AFA304B2F4A0C900D9193
:1023100006F0E8FA089A099B06F0E4FA221C2B1C46
:1023200007F06CFA059A9060D160284B264A08980D
:10233000099907F0F3FC021C0B1C06F0D3FA221CCF
:102340002B1C07F05BFA059B186159610C9A0D9BD9
:102350001E491D4807F0E2FC089A099B06F0C2FAE4
:10236000221C2B1C07F04AFA059A9061D161069A4B
:10237000079B0898099907F0D1FC021C0B1C06F07A
:10238000B1FA221C2B1C07F039FA059B186259621E
:102390000A980B9903F038F9321C3B1C07F02EFA0F
:1023A000021C0B1C0698079907F0B8FC089A099BB9
:1023B00006F098FA221C2B1C07F020FA059CA0625C
:1023C000E16211B0F0BDC046000000000000F03F27
:1023D000CD3B7F669EA0F63F00000000000000009D
:1023E00070B5041C08A80026855F22636363216022
:1023F00004980599A063E1630699079A201C21645B
:102400006264FFF701FB054B034A22656365A26422
:10241000E3645834258070BD000000000000000017
:102420000023037103757047F0B505790326079CF7
:10243000754327687D1B256001717143266801255E
:102440006D42711805802160C371069B04790133C8
:10245000002104810361644201238581418144801C
:10246000427181710375F0BD0369013B03617047DF
:1024700070B50488031C0134A4B2A5B2058040885D
:102480000022013080B281B20EB25980964203DA46
:1024900040429A81188104E0101C312E0EDC998193
:1024A0001A812DB29A89312D04DC0120821AA418D8
:1024B0005C8103E032218A1A5A81012070BD022317
:1024C000C05E7047407970470A23C05E70470023A2
:1024D0000375037170470C23C05E7047C079704765
:1024E000F0235B0070B5041C051CC618281C1835A9
:1024F000FFF796FFB542F9D180239B00E018FFF764
:102500004BFA201C70BDFFFFF7B5041C08A8077824
:1025100009A8007884460BA80026855F0CA80078DF
:1025200000950190F025012040426D006053F12597
:102530006D006053F32040002154EA21FF316254C2
:10254000F5225200A354E823FF33E754F4236046F6
:102550005B00E054F82300255B00E5508021FA235E
:102560005B008900E55060185A220A990D9E07F019
:10257000D3FF982200239200A35099229200A350E7
:102580009A239B00009AE5549C239B00E252101C66
:1025900006F0FCF8071C8120391CC00505F052FC30
:1025A0009B239B00E050FE20391C800505F04AFC6F
:1025B0009E239B00E050114B01981A689D239B00BD
:1025C000E2500099FA23FF33E0540A228BB25A43B7
:1025D000F221306892B24900625212B2821832601F
:1025E0000E9E32889B183380EC23FF33E554FE2285
:1025F000F62392055B00E250F7BDC046D8110020DB
:10260000F0B589B005939A23049106929B00C35CB0
:102610000025041CAB4200D160E19E25AD00C349FA
:10262000405905F0F3FD6051C14D9B2328689F0080
:102630009C239B000790E05E06F0A8F8BD4905F0DA
:10264000E5FD9D239B00079A061CE0583D1C101ACF
:1026500006F0F8F8011C301C05F0D8FDB64905F06D
:10266000F1FB011CB54805F0FBFEE15905F0CEFD7C
:10267000B349061C05F01CFA002807D1301CB149EB
:1026800005F02AFA002801D1E65101E0AC4B635174
:10269000F3235B00E05C06F0D5F8011CAA4805F0C6
:1026A000D1FB049B011C186805F060FA0499069A96
:1026B000002508602F1C1560059B5E19301C00F07A
:1026C0003BFC3BB2984209DAF3235B00E15C301C2F
:1026D000049A00F0D9FB002800D0F8E01435782DDA
:1026E000EAD106980568002D0FD1EC26FF36A35DD0
:1026F000002B0AD00521281C01F06EFC142358433E
:102700000599069A08181060A555069B1B68049346
:10271000002B00D1D5E086489C239B000768E05E33
:1027200006F034F8011C05F021FA9D239B00061CDD
:10273000E0589B25381A06F085F8011C301C05F07E
:1027400065FD7D4905F07EFBAD00011C7F4805F06D
:1027500087FE615905F05AFD7949061C05F0A8F974
:102760002F1C002807D1301C764905F0B5F9002848
:1027700001D1665101E0724BE3516D4B99271A6804
:102780009D239B00E250FA23FF33E35C0E9ABF00C7
:102790001370F2235B00E25AE0590132E2520F9BC0
:1027A000002504330F939B239B00E15805F058FE4E
:1027B000291C061C05F07CF9002801D1E65100E037
:1027C000E551E5599E27BF00281CE15905F084F921
:1027D000002804D0281C5E4905F0C8F9E051E82320
:1027E000E159FF33281CE65C05F02CFB051C301C6E
:1027F00005F0CCFFF4235B00071CE05C801B05F0B8
:10280000C5FF291C05F002FD011C381C05F0AEF9BE
:1028100005F094F9EA23FF33E65CC0B20590301C62
:1028200005F0B4FFF5235B00071CE05C801B05F09E
:10283000ADFF291C05F0EAFC011C381C05F096F9D7
:1028400005F084FF434B071C1F4003D5424B013F5B
:102850001F430137049800F06DFBF0256D00061C46
:10286000605F1421153005F0C7F8F12361535B0058
:10287000E25EFFB2002A01DA0022E2521820414350
:10288000119A6018109900250095019102920599FE
:102890003A1C331CFFF7C8FDF3235B000599E25C8B
:1028A00014315143049809B200F01CFA049800F066
:1028B0003DFB069B291C1860049800F039FB01259C
:1028C00000E0049D9A2300229B00E25406E0301CA5
:1028D00000F032FB069A071C1660FFE61398F222FE
:1028E00052000023C35EA05E9B265843013005F0D2
:1028F0004DFF134905F08AFC0F999C239B00E35E72
:10290000071C0868B6005843013005F09BFF011C06
:10291000381C05F097FA114905F028F9011CA05957
:1029200005F074FCA051281C09B0F0BD3333733F8F
:10293000D8110020CDCC4C3E00401C469A99993FBE
:10294000CDCCCC3D00409C450AD7233C0000404004
:1029500017B7D138FF00008000FFFFFF9A99593F59
:10296000F0B585B0041C02910027F0235B00E05E07
:1029700014213818013005F03FF82F4E182531701A
:10298000C9B26943611801910B7D002B49D0F8232E
:102990005B00E3580093F3235B00E15C009804F0D4
:1029A000CBFF00293DD1009AFA235B00E250019849
:1029B000FFF75EFD33786B43002820D0E018FFF767
:1029C0008DFD14235843029B1818009030786843FB
:1029D0002018FFF777FD0190307868432018FFF743
:1029E0007AFD0390307845436019FFF76DFD039B36
:1029F0000199DAB2C3B2009800F07AF911E0E01858
:102A0000FFF75DFD31280CDD307845436019F12575
:102A10006D00FFF75CFD605F1421153004F0ECFFE2
:102A200061530137142FA0D1F8235B00E258013223
:102A3000E25005B0F0BDC046D3110020F3235B0087
:102A4000C05C704710B5F2225200815E034A012338
:102A5000914200DC0023D8B210BDC0461027000010
:102A600038B5F2246400051C0A21005F04F06EFFF3
:102A7000285338BDF6235B00C0587047012282807E
:102A8000164A00230261164A10B58260FE229205A2
:102A9000C260144A03708261134A4380C261134AC0
:102AA00083710262C21DC371838283840132937772
:102AB000D3770022C418A4182834002101322170D1
:102AC000642AF7D19622643352009342F1D1AA23AB
:102AD0005B00C154AB235B00C15210BD0000C0407D
:102AE0000000A0415655553F8FC2F53D00002041E2
:102AF00070B50378041C002B08D10221425E002A25
:102B000004D11421425E002A00D189E0A579002D6C
:102B100053D06288002B0DD011B200290ADC0720A7
:102B200048433C2104F012FF002301306080E37130
:102B3000237075E090B2411E89B2F8290ED8E3796E
:102B4000002B09D1451C12B2072050433C2104F050
:102B5000FDFE2D18658063E0618061E012B2F92A04
:102B600027DDAB235B00E35E002B1ADCAA256D009A
:102B7000665D07F081FD742104F03EFF4636294B67
:102B80007118194003D5284B01391943013161559A
:102B900007F072FD062104F02FFFAB2309315B0023
:102BA000E1520223E05E214904F0D0FEF93060805A
:102BB00030E0002B34D1638032E0A08A002B0CD0AF
:102BC00002B2002A09DC06205043052104F0BEFEB3
:102BD0000130A082E571257022E082B2551EADB2AF
:102BE00000B21C2D0ED8E379002B04D10623551C0E
:102BF0005843052101E00F21494204F0A7FE2D189A
:102C0000A5820DE01D2808DD0F21494204F09EFE3B
:102C10001D30A0820123E37102E0002B00D1A382CA
:102C200070BDC046FF00008000FFFFFF30FDFFFFCA
:102C30007047FFFFF7B50E1C041C15490069151CF1
:102C4000019305F0E3FA311C071C04F031FF002862
:102C500001D1276100E026610E49206A05F0D6FA0D
:102C6000291C061C04F024FF002801D1266200E084
:102C700025620949A06805F0C9FA0199051C04F00C
:102C800017FF002801D1A56001E0019BA360F7BDFB
:102C90001F856B3FC2FA7F3FAE47613F7047C360FD
:102CA000009B0170036100210123427081808171CA
:102CB000C17081601A408A4201D1827000E0837045
:102CC00070478288031C013A92B2828012B20020BF
:102CD000824204DCDA78824201D10120D870704748
:102CE000C1707047002381808271C3707047FFFFFD
:102CF000F0B500258BB0041C039106921E1C0195B3
:102D0000019DEBB2B34200D3B7E02369019F06985F
:102D10001422995E3D1802916F1A00D57FE0E26897
:102D2000A07821780790049200910422995E588837
:102D3000079A059152498C46002A36D1009D962269
:102D4000032152006A4379438F180499039ACF19DB
:102D5000AA2149005B5C0132FF32059DD21803B203
:102D60006B43D90FCB185B10D21861460A4003D5CC
:102D7000444B013A1A43013209AB1A70019A1D1CE7
:102D80000521C3436B70D000494204F0DFFD3018C9
:102D9000C317C0185840301AFF23311C584304F0A1
:102DA000D5FD391CA870281C61E0029F96227D1B6E
:102DB000009F0321633552007A434D430499AD18B7
:102DC0004D19039AAA2149005B5C0132FF32059F2D
:102DD000D21803B27B43D90FCB185B10D2186146CF
:102DE0000A4003D5274B013A1A43013209AB1A7046
:102DF000019A1F1C0521C3437B70D000494204F097
:102E0000A5FD3018C317C0185840301AFF23311CD5
:102E1000584304F09BFD291CB870381C27E00020A3
:102E2000142101F0D9F8032823DCA3789620216926
:102E300022784000002B0BD11427C95F42436D1A42
:102E4000323503216943E0688918411809A80BE06D
:102E50001423C95E42434D1B313503216943E568A4
:102E60008918691809A80023037043708370FEF75E
:102E7000D8FC019F0137019742E70BB0F0BDC04677
:102E8000FF00008000FFFFFFF7B50092C678041C2A
:102E90000D1C002E42D087790423C25E01928F421E
:102EA00016D9CB1B32205843391C04F04FFD019A30
:102EB000904233DD781B05F069FC1A4905F0A6F94C
:102EC000009B011C186805F0CBFA009A106027E0FF
:102ED000381C05F0B7FC009B071C1B68281C0093DE
:102EE00005F0B0FC391C05F0BBFA009905F0B8FA02
:102EF0000D4905F08BF90099051C381C04F036FECD
:102F0000011C281C04F09EFF051C019805F03EFCE6
:102F1000011C281C04F0E0FD002801D10026E67009
:102F2000301CFEBDCDCCCC3D0000484280687047CF
:102F300081607047407870470423C05E7047FFFF90
:102F4000F0B572B61B4B1A78002A30D01A4A1068B6
:102F50001A4A16681A4A301815681A4A401914682D
:102F6000194A00191168194A40181268184980183E
:102F700080B2184A4008104380B2086016481749CA
:102F80000968076816487918066816488919056897
:102F9000154849190468154809190068091889B2C3
:102FA00049080A43124992B20A6000221A7062B6B6
:102FB000F0BDC046D511002038B003403CB00340FE
:102FC00040B0034044B0034048B003404CB003401D
:102FD0002CB003400080FFFF5CB0034058B00340BA
:102FE00060B0034064B0034068B003406CB003407D
:102FF00030B003401B4B1C4A19781C4B082901D1E7
:10300000002102E00A2903D138211160132206E0D1
:103010000C2901D1342100E03C21116012221A60F8
:10302000134B1A78134B002A01D0002200E0012232
:103030001A60114B1A78114B012A01D880220CE03A
:10304000042A01D8842208E0082A01D8852204E055
:10305000102A01D8862200E087221A60084B01223C
:103060001A70704768FDFF1F08B003400CB00340A2
:10307000D711002020B0034069FDFF1F24B003409A
:10308000D511002070B5031E0C2B0DD9021C0E3A71
:10309000D2B20C2A07D91A1C263A193B0020DBB2FF
:1030A000012A32D800E0131C184AD45C184B1B7854
:1030B000002B01D0FFF744FF72B6164B10226106B9
:1030C00005D51968914319603F231C4002E0196837
:1030D0000A431A60104B114D01221C602A7062B61F
:1030E0001E1C72B633681A0608D50D4B18680023EB
:1030F0002B7062B60B4B1B78184106E02B78002B27
:10310000DBD062B600F072FFEBE770BDE8A700000D
:10311000D51100200CB0034000B00340D6110020B0
:1031200010B00340D4110020024B1A6801321A601B
:103130007047C046D811002010B50B4C23685A03C5
:1031400001D500F0FFF923685A0501D501F07CF99B
:1031500023681A0501D501F0BBFB2368DA04ECD51E
:1031600001F0FAFDE9E7C0463480044008B5FFF7F6
:10317000E3FFFFFF014B00221A607047008104400B
:103180007047FFFF024A136818181060181C704738
:103190006CFDFF1FFEE70078434258417047012352
:1031A00003707047EFF31380002821D1EFF31082F2
:1031B000002A1FD1EFF30583002B0FD0101C0F2B1B
:1031C0000ED91A1C103A92080B49032092000340B2
:1031D000521883401068D840C0B201E080204000FF
:1031E000EFF31182002A05D0824203D2101C01E0C5
:1031F000012040427047C04600E400E010B51A28A4
:1032000018D80C2358430C4A835810181C7D027A96
:10321000224205D0002901D01A710BE01A7209E090
:1032200043681A68002902D003210A4301E0022101
:103230008A431A6010BDC046F8A7000010B51A28CE
:1032400018D80C2358430C4A141863688258247AFF
:10325000012904D1117D0C431475A22205E0107DD3
:10326000A0431075002902D18022520001E00422FF
:10327000FF321A6010BDC046F8A7000072B60C4BB2
:103280000C491A680C4B1B68096862B6480104D5E2
:1032900032219142894149425B18FA208000434320
:1032A0000648821A06484243920D98187047C04655
:1032B00018E000E004ED00E0D81100207FBB000022
:1032C0005555010038B5041CFFF7D8FF051C002C2C
:1032D0000FD0FFF7D3FF074B401B984206D9013CA4
:1032E000002C06D0FA239B00ED18F2E700F07EFEDA
:1032F000EFE738BDE70300001C4B8022D20510B574
:103300001A60802212061A60194B002018601949B1
:10331000194B1A4A196028231360194A194C136073
:10332000194A1360194A1360194A1360194A136045
:1033300009222260184C2060184C2160184C236030
:10334000184C2360184C2260184C2060184801600B
:1033500018490B6018490B60184B1A60FFF74AFEBA
:10336000FA20FFF7AFFF00F0D5FB10BD00E100E051
:1033700004800340FFBF0000088003400C8003402E
:1033800014800340008003401C80034024800340DD
:103390002C80034034800340049003400890034095
:1033A0000C900340149003400090034004A003409D
:1033B00008A003400CA0034014A0034000A0034059
:1033C000F0B50B4F02223B780A4E1A43D2000A4D49
:1033D000B418606028788824002800D0C824090424
:1033E0000C43B45001225040534028703B70F0BD54
:1033F0004412002000F8FF1FBC120020431E10B52D
:10340000032B0FD872B6084A99008858002807D0B5
:1034100044685B008C50054A01889C5A611A995295
:1034200062B600E0002010BD34120020AC14002071
:10343000431E0020032B09D872B6054A9B009B58F7
:10344000002B02D001305B68FAE762B67047C046D5
:103450008812002038B572B60123164A9A18013A2C
:10346000127811071CD5144A5C01A5589900002D4B
:1034700005D1131908305860104BA3500AE00124FD
:103480002143C9008C58002C0AD1531808305860C9
:103490000B4B8B500B4B1A78013A1A7062B608E04E
:1034A0000133052BD9D162B6064B00221A7000F009
:1034B000A5FB38BD60A9000000F8FF1F8800400090
:1034C000C8004000B2120020421E10B5032A30D8B6
:1034D000022380001843174BC0001B1872B6164C0D
:1034E000A05C032809D804F0CFF9140216050833AC
:1034F000022011E0083304200EE010489200145816
:103500000F4B002C01D1115001E0985841609950A7
:103510000EE0032000E00520A0540A1C08325A6087
:103520008822180700D5C822098809040A431A60AE
:1035300062B610BD00F8FF1FF011002088120020B5
:1035400098120020F7B5B5490C780E1CE4B262075A
:103550001DD5B34B1B78002B16D0B24A1378DBB2C3
:10356000002B05D0013BDBB21370002B00D100BE55
:10357000AD4A1378DBB2002B06D0013BDBB21370EF
:10358000002B01D100F060FCA44D04232B70082512
:10359000221C2A4000D154E2A44BA54C1B78DBB27C
:1035A0001E099A08002E00D0DDE1D50065192F68AC
:1035B0006A68B806000F01380C2800D9D0E104F081
:1035C0006DF993019301CF01CF01CF01CF01CF015D
:1035D000CF01AC01CF01CF01CF010D009549136898
:1035E000954F526895482960954D964900263B6055
:1035F0007A609BB201222E602661A66102708B4226
:1036000018D8D021C9008B4200D3E5E08121914038
:103610008B4200D1C2E006D8802B00D1A9E0822BDA
:1036200000D1ABE0F5E0884A934200D1C5E0A0228A
:10363000D20017E085498B4200D152E10DD8882194
:1036400009018B4200D18EE090221201934200D0FA
:10365000DFE0BA78724B1A7009E07D4A934200D1DC
:10366000CFE07C4A0026934200D115E1D1E0A319B6
:10367000196A090603D5586A083800F0BFFA0836F7
:10368000802EF4D100252E1C734AA858002805D09E
:103690004368019300F0B2FA0198F7E76E496F4B67
:1036A0006F4A4851E850A858002805D04368019354
:1036B00000F0A4FA0198F7E76A4B6B4AE8507300F0
:1036C000D0526749694B4851F05C0238032807D84B
:1036D00004F0DAF802040204002200E001229A5504
:1036E00001360435042ECFD1614A00231370012521
:1036F000161C604BEA18604B9200EB18013B1B78DC
:103700001370190720D500F05BFA6B01002805D073
:10371000E21808305060594AE25003E0E050337834
:103720000133337000F04CFA0122AB001343DB008D
:10373000002805D0E218083050603E4AE25003E00D
:10374000E050337801333370AB0002221A43D200C9
:103750000021A1500322134393400135E150052D70
:10376000C7D10E1C98E02E4B454C1B78161C2370BD
:1037700093E0434C2670667002268EE0BB88042BD3
:1037800047D83F4C3F4D9B00267066705B191B78F5
:103790000226334200D180E022707EE0BA887F2387
:1037A0001340042B35DC7E88002E32D135499B0036
:1037B0005B181A7802218A4329E0BA887F231340D4
:1037C000042B26DC7E88002E23D12E4A9B009B18DA
:1037D0001A7802210A431AE07A88B9882A4B5C6871
:1037E000002C16D01888904209D15888884206D1FA
:1037F000120A032A01D126784FE01E894DE00C33CE
:10380000EDE7224B1A68224B1A60BA78214B1A70E6
:1038100042E01C4B0F221A7063E0C0468020074034
:10382000BB12002045120020BD120020902007404E
:1038300000F8FF1FC8004000A8120020BC120020A2
:10384000DC1100208106000002030000212000009E
:10385000212200002123000034120020E01100206A
:103860008812002098120020AC140020F0110020D3
:10387000B212002030C8011060A90000880040008A
:10388000B3120020C020074064A90000D811002016
:10389000BC140020CC120020341CFB889E4200D9AE
:1038A0001E1C371E402F00D94027201C391CFFF753
:1038B00087FDE419F61B03D1351C402F04D010E01E
:1038C0004025B54200D9351C201C291CFFF778FD86
:1038D0006419761B01D1402D03D1754D754B2C60B9
:1038E0001E800122744B3AE0744B1988744B994244
:1038F00010D10023D05C7349C8540133072BF9D190
:103900000B68862B02D1704B0F221A700020011C0D
:10391000FFF756FD6D4B2B6022E0654F3D68002D93
:1039200013D064490E88341E402C00D94024281C32
:10393000211CFFF745FD361B5E4AB6B21680002EED
:1039400001D1402C00D12E193E605C4BA022198879
:10395000D200914204D100225A709A785C4B1A70BE
:103960000122554B61E0D200A4186068013E08387E
:10397000F6B22B4036D000F041F95649B00042581B
:10398000554B002A1BD055684550111C985D0831D5
:10399000616003280BD803F077FF020406080321B7
:1039A00004E0022102E0052100E00421995588236A
:1039B000270700D5C8231288120413433CE0985D02
:1039C000032808D803F060FF39390204002200E020
:1039D00001229A5531E02C40624262410324A41A2C
:1039E0009C552AE062880280002A20D03B4D43800B
:1039F0004360B3005F593A49002F01D1585101E0AB
:103A0000CD586860C850374B7600F15A5218F252C0
:103A100000F0D6F8002804D00830606021070AD5ED
:103A200007E0314B20601A7801321A7005E02C4211
:103A300001D0264B00E02D4B23602D4A0823137044
:103A400081E5012004421ED01B4902230B70294B43
:103A5000264C1A70284B294D1C609C60284C1A611A
:103A6000DC609A615D60274B0D241C70264CFF239F
:103A70002370174C33702270244A1370244B9F22FA
:103A80001A70087013E063B2002B04DA1D4B0D228C
:103A90001A708023337002231C4204D01A4A117812
:103AA000C9B21170337010231C4200D03370F7BDBF
:103AB000DC110020B012002094200740A812002042
:103AC00021200000B414002045120020C80040004E
:103AD0009820074088120020F011002034120020A6
:103AE000E0110020AC140020B21200208800400039
:103AF000802007404412002000F8FF1FF41100202E
:103B000048120020C0200740882007408C20074032
:103B10008420074010B501F095F900221A4B0021CE
:103B2000D150981808324160882AF7D1174A80206E
:103B30001468C00220431060180A154AC0B2107001
:103B4000180C144AC0B21070134A1B0E1370134A9B
:103B5000FF231370124A13481370134A1370012283
:103B600002701248017012490A70124A1168994392
:103B70000B1C70210B4313600F4B802252041A6000
:103B80000E4B10221A7010BD00F8FF1F3480044045
:103B90009C200740B0200740B42007408020074009
:103BA000882007409420074010200740002107404C
:103BB0008420074018E400E000E100E0082107400D
:103BC00038B572B60B4C2568281C03F099FF0B28FA
:103BD00002D962B600200CE080231B06C3409D433F
:103BE000256062B648235843034B1818002303602E
:103BF000436038BD70FDFF1F00FAFF1F10B5041CA5
:103C00000E484821201A03F053FE0B2815D80C4B00
:103C10001B78002B07D00B4B1B78002B03D0201CEC
:103C2000FFF718FC09E072B68022074B1206C2406B
:103C3000101C1A681043186062B610BD00FAFF1F0E
:103C4000B2120020BB12002070FDFF1F38B5114CCE
:103C50002368002B0CD020684288531C8218157AE8
:103C60000288934212D3FFF7C9FF002323600EE0BE
:103C7000094B1B78002B02D10120404208E00320B1
:103C8000FFF7BCFB20600028E5D1F5E74380281C46
:103C900038BDC046C8120020BB12002010B50D4C24
:103CA0002368002B03D02368002B0ED103E00A4BBE
:103CB0001B78002B02D10120404209E00320FFF7CE
:103CC0009DFB20600028EED1F5E75A889B18187AF2
:103CD00010BDC046C8120020BB120020054B9888BA
:103CE000054B1B68002B03D01A885B88D31AC018B9
:103CF0007047C046AC140020C8120020F7B5304D04
:103D00000123071C0C1C2B70002C56D02D4E306844
:103D1000002827D12C4A01922C4B1B78DBB2002BB8
:103D200003D12B700120404249E00420FFF780FBC3
:103D3000072808D801232B70FFF742FF214B18609A
:103D400000280FD128700198214B013801900028DC
:103D500002D01A78002A02D001221A70E2E700F09D
:103D600045F9D9E71A4B002231681A704B88402078
:103D7000C01A0094844200D90090181C009A0830A0
:103D80009B1808184B800190A41A002300988342C6
:103D900004D0F85C019AD0540133F7E7FF184B8840
:103DA0003F2B06D940230B800420FFF78DFB002317
:103DB0003360084B05221A70A6E72C70201CFEBD4C
:103DC000BE120020C012002009750000BB120020A6
:103DD000C4120020BD12002007B56B46D87107330E
:103DE000181C0121FFF78AFF0EBDFFFFF8B5124B2B
:103DF0001B78002B1ED0114F114B3C6801261E7002
:103E0000104D002C09D000262E70638804202380DA
:103E1000211CFFF759FB3E6009E0FFF7D1FE011EB0
:103E200004D004202C70FFF74FFB00E02E70044AF2
:103E300000231370F8BDC046BB120020C012002042
:103E4000BE120020BD12002038B50E4B1D78EDB219
:103E5000002D15D10C4C2168002906D04B88042078
:103E60000B80FFF731FB25600AE0FFF7A9FE011E7A
:103E700003D00420FFF728FB02E0044B01221A7054
:103E800038BDC046BE120020C0120020BD12002066
:103E900008B5FCF77DFCFCF7DDFE00F0A7F8FAE7BB
:103EA00037B50224051C221C01A8054906F034FB85
:103EB0002B68281C5B6801A9221C98473EBDC046A0
:103EC0003CA90000F0B585B06B460E338EB2144CA1
:103ED0000D0C013666436C43A5B2370CAE19F619CA
:103EE000250C2C19360CA5196D080A266E43891B62
:103EF00030311C1C1970013B002D01D0291CE5E755
:103F0000211C002A03D01C1C2D224B1E1A70036892
:103F100004A9E24352185B68211C984705B0F0BD24
:103F20003333000008B5FFF7D9FE08BD08B5FFF729
:103F30008DFE08BD08B5FFF7B1FE08BD08B5FFF757
:103F400055FF08BD08B5081CFFF746FF08BD08B5BA
:103F5000081C111CFFF7D2FE08BD7047044B00225D
:103F60001A711A73FA21034A890099601A6070471E
:103F7000D012002048A9000070B50B4E3468002C08
:103F800000D10A4C201C0A4903F036FD094D201CC3
:103F90004D43074903F0DAFC074B5843281801D575
:103FA000064BC018306070BDE012002024D95B07BA
:103FB0001DF30100A7410000ECF4FFFFFFFFFF7FAE
:103FC000002110B5041E8C4204D0FFF7D5FF211C40
:103FD00003F0B2FC081C10BD10B5041E8C4203DABD
:103FE000081AFFF7EDFF0419201C10BD10B5104C86
:103FF0002378002B1BD101232370FFF76FFE0028CD
:1040000001D0FFF7AAFF00F0ADF9002801D000F0C1
:10401000D8FF00F0EBFB002801D001F066F800F0BB
:1040200029FE002801D001F0F4F80023237010BD10
:10403000E4120020F8B5061C0D1C171C0024301CCF
:10404000391C03F079FC092901D8303100E03731FF
:10405000C9B22955301C391C03F02AFC061E01D0B8
:104060000134ECE72B1958702B1C5A1BA24206DABC
:104070001A78295D19702A550133013CF5E7281C8F
:10408000F8BDFFFF164B80221968D2000A431A6060
:10409000144A00231370144A14491370144A1370FD
:1040A000144A1370144A1370144A1160144AD1212F
:1040B00089001160134AC104C90EC0B2117050705A
:1040C00093702C23D370104BFF22196891430A1C64
:1040D00040210A431A600D4B802252011A6070473A
:1040E0003480044070130020ED1200201303000000
:1040F0007813002071130020EC12002040A004402F
:1041000044A0044000A006400CE400E000E100E010
:1041100010B5124B132299789143032202400A43AF
:10412000410701D510210A439A700F220B49024022
:10413000042A03D18A79402422438A715A791021B2
:104140008A43084200D00A435A719A7910218A435F
:10415000840600D50A439A7110BDC04600A00640EF
:1041600008B5124B1B685A051ED5114B1B78DBB2E4
:10417000002B02D0FFF73AFFF7E70E4A80214901F2
:1041800011600D4A0D49D3700422FF320A600C49B8
:104190000A600C4A13700C4A13700C4B1B68002BFE
:1041A00002D00B4A12781A7108BDC0463480044010
:1041B000EC12002080E100E000A0064040A0044096
:1041C00044A0044070130020ED120020E8120020EB
:1041D0002E13002038B5041C0B4B1D78EDB2002DBA
:1041E000FAD1201C0121FFF729F8291C201CFFF718
:1041F00005F80C225443054B054AE1581C1911607F
:10420000044B227A1A7038BDEC120020F8A7000087
:10421000741300206F13002038B50E4B1A6800236A
:10422000510514D50C4C1A2810D80C2343430B4AC3
:104230000B4D9958D3181B7A216001212B70FEF782
:10424000FDFF23682A781A72012300E02360181CFE
:1042500038BDC04634800440E8120020F8A70000B2
:104260002E13002000207047F8B5214B071C1B6857
:104270005A053BD51F4B1B68002B02D01E4A1278F3
:104280001A711E4E002334783F220134A2425B4152
:104290005B421C401A4D2B78A3421CD1FEF782FFD3
:1042A000402813DC174A13795BB2002BF2DA2B7823
:1042B000002101333F209842494149420B401249B5
:1042C000C95CDBB2C9B2D1712B70E3E7FF28E1DD35
:1042D000FFF78CFEDEE70C4BFFB21F550B4B0122A4
:1042E0001A70084BE4B2AC223470DA70F8BDC046E4
:1042F00034800440741300206F13002078130020D2
:104300007113002000A00640EE120020EC120020E5
:1043100038B5041C4518AC4204D02078FFF7A4FF40
:104320000134F8E738BDFFFF08B5044B1B78002BBC
:1043300002D0FFF75BFEF8E708BDC046EC12002094
:10434000064B074A1B781078DBB2C0B2834201D318
:104350003F3000E00138C01A7047C0467813002093
:1043600071130020054B1878054BC0B21B78DBB2E7
:10437000984200D24030C01A7047C04670130020E7
:10438000ED12002010B5124B12491A780B78D2B2F8
:10439000DBB29A4219D001333F2400209C424041B5
:1043A000404203400C48DCB2C05C0C700B49C0B208
:1043B000096800290BD09A4200D24032D31A1A2B36
:1043C00005DC074B1B780B7201E00120404210BD59
:1043D00070130020ED1200202F130020E81200209F
:1043E0002E1300200A4B1A780A4B1B78DBB29A4234
:1043F0000AD0013300223F219942524152421340D8
:10440000054AD05CC0B201E0012040427047C0467E
:1044100070130020ED1200202F130020064B1A7895
:10442000064BD2B21A70064B1B68002B02D0054A0D
:1044300012781A727047C046ED12002070130020E7
:10444000E81200202E13002030B5254A1379990672
:1044500012D52449D4790B78002001333F259D42A1
:104460004041404203402048E4B20078834203D0F8
:104470001E48C454DBB20B70D178194CC9B24BB290
:10448000002B1ADA23795BB2002B16DA184B194885
:104490001D780378DBB29D4202D16C23E3700CE0FF
:1044A000013300243F259D42644164422340124C65
:1044B000E45CDBB2E4B2D4710370402319420ED045
:1044C000117919420BD00D4B002119700C4B1B6850
:1044D0008B4202D00B49097819722C23D37030BD5E
:1044E00000A0064070130020ED1200202F130020C2
:1044F0007813002071130020EE120020EC1200202F
:10450000741300206F130020164B802219681201CB
:104510000A431A60144A00231370144A1449137092
:10452000144A1370144A1370144A1370144A116019
:10453000144AD12189001160134AC104C90EC0B2C6
:104540001170507093702C23D370104B104A19685F
:104550000A408021C9010A431A600E4B8022920151
:104560001A60704734800440EC130020811300204F
:1045700013030000F4130020ED130020801300202B
:104580000CB0044010B0044000B006400CE400E061
:10459000FF00FFFF00E100E010B5124B13229978F5
:1045A0009143032202400A43410701D510210A43E7
:1045B0009A700F220B490240042A03D18A794024C1
:1045C00022438A715A7910218A43084200D00A4353
:1045D0005A719A7910218A43840600D50A439A7148
:1045E00010BDC04600B0064008B5124B1B681A0546
:1045F0001ED5114B1B78DBB2002B02D0FFF7F6FC67
:10460000F7E70E4A8021890111600D4A0D49D370E8
:104610000422FF320A600C490A600C4A13700C4AEB
:1046200013700C4B1B68002B02D00B4A12781A71C6
:1046300008BDC046348004408013002080E100E0C3
:1046400000B006400CB0044010B00440EC13002051
:10465000811300207C130020AA13002038B5041C0D
:104660000B4B1D78EDB2002DFAD1201C0121FEF775
:10467000E5FD291C201CFEF7C1FD0C225443054B0F
:10468000054AE1581C191160044B227A1A7038BD92
:1046900080130020F8A70000F0130020EB13002087
:1046A00038B50E4B1A680023110514D50C4C1A2886
:1046B00010D80C2343430B4A0B4D9958D3181B7A3F
:1046C000216001212B70FEF7B9FD23682A781A7248
:1046D000012300E02360181C38BDC046348004402C
:1046E0007C130020F8A70000AA13002000207047C8
:1046F000F8B5214B071C1B681A053BD51F4B1B68DF
:10470000002B02D01E4A12781A711E4E00233478F4
:1047100027220134A2425B415B421C401A4D2B7898
:10472000A3421CD1FEF73EFD402813DC174A137943
:104730005BB2002BF2DA2B7800210133272098425C
:10474000494149420B401249C95CDBB2C9B2D1713F
:104750002B70E3E7FF28E1DDFFF748FCDEE70C4BB9
:10476000FFB21F550B4B01221A70084BE4B2AC226A
:104770003470DA70F8BDC04634800440F013002075
:10478000EB130020F4130020ED13002000B00640CE
:10479000821300208013002038B5041C4518AC4259
:1047A00004D02078FFF7A4FF0134F8E738BDFFFFFD
:1047B00008B5044B1B78002B02D0FFF717FCF8E775
:1047C00008BDC04680130020064B074A1B781078AE
:1047D000DBB2C0B2834201D3273000E00138C01AF7
:1047E0007047C046F4130020ED130020054B1878E5
:1047F000054BC0B21B78DBB2984200D24030C01AE1
:104800007047C046EC1300208113002010B5124BF6
:1048100012491A780B78D2B2DBB29A4219D001331E
:104820003F2400209C424041404203400C48DCB2FF
:10483000C05C0C700B49C0B2096800290BD09A42C9
:1048400000D24032D31A1A2B05DC074B1B780B72AF
:1048500001E00120404210BDEC1300208113002034
:10486000AB1300207C130020AA1300200A4B1A78F7
:104870000A4B1B78DBB29A420AD0013300223F2157
:104880009942524152421340054AD05CC0B201E005
:10489000012040427047C046EC13002081130020E5
:1048A000AB130020064B1A78064BD2B21A70064B97
:1048B0001B68002B02D0054A12781A727047C04656
:1048C00081130020EC1300207C130020AA13002089
:1048D00030B5254A1379990612D52449D4790B7835
:1048E000002001333F259D42404140420340204883
:1048F000E4B20078834203D01E48C454DBB20B708C
:10490000D178194CC9B24BB2002B1ADA23795BB2B9
:10491000002B16DA184B19481D780378DBB29D423C
:1049200002D16C23E3700CE00133002427259D4263
:10493000644164422340124CE45CDBB2E4B2D471C3
:104940000370402319420ED0117919420BD00D4B40
:10495000002119700C4B1B688B4202D00B4909785F
:1049600019722C23D37030BD00B00640EC13002028
:1049700081130020AB130020F4130020ED1300205E
:104980008213002080130020F0130020EB1300207E
:10499000164B8022196852010A431A60144A0023F8
:1049A0001370144A14491370144A1370144A137084
:1049B000144A1370144A1160144AD12189001160FD
:1049C000134AC104C90EC0B21170507093702C23E9
:1049D000D370104B104A19680A408021C9030A435A
:1049E0001A600E4B8022D2011A6070473480044056
:1049F00068140020FD130020130300007014002031
:104A000069140020FC13002008C004400CC00440BE
:104A100000C006400CE400E0FFFF00FF00E100E002
:104A200010B5124B132299789143032202400A4396
:104A3000410701D510210A439A700F220B49024009
:104A4000042A03D18A79402422438A715A79102199
:104A50008A43084200D00A435A719A7910218A4346
:104A6000840600D50A439A7110BDC04600C00640B6
:104A700008B5124B1B68DA041ED5114B1B78DBB24C
:104A8000002B02D0FFF7B2FAF7E70E4A8021C901E6
:104A900011600D4A0D49D3700422FF320A600C499F
:104AA0000A600C4A13700C4A13700C4B1B68002BE5
:104AB00002D00B4A12781A7108BDC04634800440F7
:104AC000FC13002080E100E000C0064008C0044064
:104AD0000CC0044068140020FD130020F8130020CF
:104AE0002614002038B5041C0B4B1D78EDB2002DA8
:104AF000FAD1201C0121FEF7A1FB291C201CFEF786
:104B00007DFB0C225443054B054AE1581C191160EA
:104B1000044B227A1A7038BDFC130020F8A700005D
:104B20006C1400206714002038B50E4B1A6800235F
:104B3000D10414D50C4C1A2810D80C2343430B4A2B
:104B40000B4D9958D3181B7A216001212B70FEF769
:104B500075FB23682A781A72012300E02360181C71
:104B600038BDC04634800440F8130020F8A7000088
:104B70002614002000207047F8B5214B071C1B6845
:104B8000DA043BD51F4B1B68002B02D01E4A12785B
:104B90001A711E4E0023347827220134A2425B4151
:104BA0005B421C401A4D2B78A3421CD1FEF7FAFA47
:104BB000402813DC174A13795BB2002BF2DA2B780A
:104BC0000021013327209842494149420B401249B4
:104BD000C95CDBB2C9B2D1712B70E3E7FF28E1DD1C
:104BE000FFF704FADEE70C4BFFB21F550B4B012217
:104BF0001A70084BE4B2AC223470DA70F8BDC046CB
:104C0000348004406C1400206714002070140020CD
:104C10006914002000C00640FE130020FC13002091
:104C200038B5041C4518AC4204D02078FFF7A4FF27
:104C30000134F8E738BDFFFF08B5044B1B78002BA3
:104C400002D0FFF7D3F9F8E708BDC046FC130020F7
:104C5000064B074A1B781078DBB2C0B2834201D3FF
:104C6000273000E00138C01A7047C0467014002099
:104C700069140020054B1878054BC0B21B78DBB2D5
:104C8000984200D24030C01A7047C04668140020D5
:104C9000FD13002010B5124B12491A780B78D2B2CE
:104CA000DBB29A4219D001333F2400209C4240419C
:104CB000404203400C48DCB2C05C0C700B49C0B2EF
:104CC000096800290BD09A4200D24032D31A1A2B1D
:104CD00005DC074B1B780B7201E00120404210BD40
:104CE00068140020FD13002027140020F813002072
:104CF000261400200A4B1A780A4B1B78DBB29A4222
:104D00000AD0013300223F219942524152421340BE
:104D1000054AD05CC0B201E0012040427047C04665
:104D200068140020FD13002027140020064B1A7879
:104D3000064BD2B21A70064B1B68002B02D0054AF4
:104D400012781A727047C046FD13002068140020C4
:104D5000F81300202614002030B52E4A1379990646
:104D600024D52D49D4790B78002001333F259D426D
:104D70004041404203402948E4B20078834203D0D6
:104D80002748C454D8B208702649086800280DD0B6
:104D900025490978C9B28B4201D35B1A01E05B1A3D
:104DA0004033272B02DD214B1B780371D178194C3E
:104DB000C9B24BB2002B1ADA23795BB2002B16DA98
:104DC0001B4B19481D780378DBB29D4202D16C233E
:104DD000E3700CE00133002427259D4264416442C6
:104DE0002340144CE45CDBB2E4B2D4710370402382
:104DF00019420ED0117919420BD00F4B00211970B6
:104E00000E4B1B688B4202D00D49097819722C2376
:104E1000D37030BD00C0064068140020FD13002090
:104E200027140020F8130020691400202614002005
:104E300070140020FE130020FC1300206C140020CE
:104E4000671400201FB572B6154B70221A70154AF0
:104E500041211170144A0F21117080221A701A78A2
:104E600052B2002AFBDA114B186862B6104B984216
:104E700001D80A23584301AC211C0A22FFF7DAF8B3
:104E80000023E15C0B4A002905D0580010180133BB
:104E900041800A2BF5D101335B0013701FBDC04662
:104EA00000000240070002400600024008000240E5
:104EB0007F969800FCFDFF1F08B50368C9B21B6808
:104EC000984708BD08B50368C9B21B68984708BD74
:104ED00008B50368C9B21B68984708BD08B50368E0
:104EE000C9B21B68984708BD08B5044B4808C018EC
:104EF00002F0DEFCFFF7C6F808BDC046C0C62D00B4
:104F000010B5064B4808C018141C02F0D1FCFFF77E
:104F1000B9F8201CFFF7FCF810BDC046C0C62D0034
:104F200008B5FFF71DF908BD08B5081CFFF752F9D1
:104F300008BD08B5081CFFF76FF9431E9841C0B2C1
:104F400008BD08B5081CFFF78DF9431E9841C0B293
:104F500008BD08B5FFF706FA08BD08B5FFF742FA25
:104F600008BD08B5FFF70EFA08BD08B5FFF7DCF974
:104F700008BD08B5FFF752FA08BD08B5FFF7E0F91C
:104F800008BD08B5081CFFF76FF9012008BD08B57A
:104F9000081CFFF769F9012008BD10B5081C141C96
:104FA000111CFFF7B5F9201C10BD38B5081C0D1CED
:104FB00005F0B0FB041C211C281CFFF7A9F9201CDC
:104FC00038BD7047044B00221A711A73FA21034A44
:104FD000890099601A60704774140020C0A900000D
:104FE00008B50368C9B21B68984708BD08B50368CF
:104FF000C9B21B68984708BD08B50368C9B21B68E9
:10500000984708BD08B50368C9B21B68984708BD32
:1050100008B5044B4808C01802F04AFCFFF774FAC0
:1050200008BDC04660E3160010B5064B4808C0181E
:10503000141C02F03DFCFFF767FA201CFFF7ACFAE6
:1050400010BDC046C0C62D0008B5FFF7CDFA08BD9B
:1050500008B5081CFFF702FB08BD08B5081CFFF7E0
:105060001FFB431E9841C0B208BD08B5081CFFF7DE
:105070003DFB431E9841C0B208BD08B5FFF7B6FB23
:1050800008BD08B5FFF7F2FB08BD08B5FFF7BEFB8A
:1050900008BD08B5FFF78CFB08BD08B5FFF702FC9B
:1050A00008BD08B5FFF790FB08BD08B5081CFFF761
:1050B0001FFB012008BD08B5081CFFF719FB0120E4
:1050C00008BD10B5081C141C111CFFF765FB201C43
:1050D00010BD38B5081C0D1C05F01CFB041C211C60
:1050E000281CFFF759FB201C38BD7047044B0022D9
:1050F0001A711A73FA21034A890099601A6070477D
:105100008414002018AA000008B50368C9B21B68FF
:10511000984708BD08B50368C9B21B68984708BD21
:1051200008B50368C9B21B68984708BD08B503688D
:10513000C9B21B68984708BD08B5044B4808C01899
:1051400002F0B6FBFFF724FC08BDC04660E3160082
:1051500010B5064B4808C018141C02F0A9FBFFF755
:1051600017FC201CFFF75CFC10BDC04660E3160076
:1051700008B5FFF77DFC08BD08B5081CFFF7B2FCB9
:1051800008BD08B5081CFFF7CFFC431E9841C0B20C
:1051900008BD08B5081CFFF7EDFC431E9841C0B2DE
:1051A00008BD08B5FFF766FD08BD08B5FFF7A2FD0D
:1051B00008BD08B5FFF76EFD08BD08B5FFF73CFD5B
:1051C00008BD08B5FFF7B2FD08BD08B5FFF740FD03
:1051D00008BD08B5081CFFF7CFFC012008BD08B5C5
:1051E000081CFFF7C9FC012008BD10B5081C141CE1
:1051F000111CFFF715FD201C10BD38B5081C0D1C37
:1052000005F088FA041C211C281CFFF709FD201C4E
:1052100038BD7047044B00221A711A73FA21034AF1
:10522000890099601A6070479414002070AA0000E9
:1052300000B5021C16480B1C490087B04908814282
:1052400019DD1448814205DD101C191C04F066FDAF
:1052500007B000BD191C101C02AA00F0C5FF049A7B
:10526000059B012108404000091A0091029803990A
:1052700001F0F6FEECE701210091101C191C034B14
:10528000014A01F0EDFEE3E700000000000000002D
:10529000FB21E93FFFFFEF7FF0B546464F46C0B424
:1052A0008FB0161C1F1C0090019100F00DFABC4A33
:1052B0000023D356041C0D1C904602940395013321
:1052C00005D0301C391C02F067F9002806D102987D
:1052D00003990FB00CBC90469946F0BD0098019917
:1052E00002F05AF98146002831D1301C391CA14BFB
:1052F0009F4A02F09DFB0028E9D001230493A94BAB
:1053000004AC63604B462362009A019BA260E36099
:10531000994A9A4BA261E36142460023D356266123
:1053200067615A1C0ED0022B0CD0201C02F064F9CD
:10533000002800D17BE0236A002B03D005F0ACF8F5
:10534000236A0360A269E36902920393BFE70098AE
:105350000199884B864A02F06BFB002822D0301C52
:10536000391C844B824A02F063FB051E2CD00123BA
:1053700004938C4B04AC636000232362009A019B6E
:10538000A260E3607B4B7A4AA261E361424600235C
:10539000D35626616761002BC7D0774A774BA2614D
:1053A000E361CFE7201C291C02F036F88146002873
:1053B00042D0201C291C6F4B6D4A02F039FB00289B
:1053C0006CD10294039582E7301C391C02F024F85A
:1053D000002800D17BE7301C391C664B644A02F080
:1053E0002DFB002800D172E7012304936D4B04AC20
:1053F0006360009A019BA260E360434619782562CE
:1054000026616761002900D17AE05D4A5D4BA261A7
:10541000E36102293CD105F03FF821230360236AB0
:10542000002B8FD005F038F8226A02608AE705F079
:1054300033F8212303607EE70098019901F0ECFF27
:105440000028B6D0301C391C01F0E6FF0028B0D08F
:10545000201C291C02F0A0F804AC002855D101231F
:105460000493504B20626360009A019BA260E3604A
:1054700043461D7826616761002D41D03D493C4877
:10548000021C0B1C03F050FDA061E161022DC2D093
:10549000201C02F0B1F80028C1D1BCE700980199A6
:1054A00001F0BAFF02940395002800D10FE7301CE9
:1054B000391C01F0B1FF02940395002800D106E7E2
:1054C00004AC0423049326616761364B63600023B8
:1054D0002362009A019BA260E360264B244AA261EA
:1054E000E36142460023D356022B04D0201C02F075
:1054F00083F8002893D104F0CFFF222303608EE7C6
:105500001C4B1B4AA261E361C2E703230493254BB2
:105510002661676163604B462362009A019BA2602B
:10552000E36042460023D356002B3DD1164A174B69
:1055300000980199A261E3610E4B0D4A02F07EFAD8
:105540000028CED0124A134B301C391C04F056F9F7
:10555000061C0F1C02F05CF8321C3B1C02F068FABF
:105560000028BED10C4A0D4BA261E361B9E7C046E9
:105570000000000000000000000000000000F03FFC
:10558000000000000000F0FF000000E0FFFFEF4718
:10559000000000000000E03F000000E0FFFFEFC758
:1055A00012FEFF1FC0AA0000104B0F4A009801997D
:1055B000A261E3610E4A0F4B02F040FA002890D03E
:1055C0000D4A0E4B301C391C04F018F9061C0F1C38
:1055D00002F01EF8321C3B1C02F02AFA002800D010
:1055E0007FE7074A074B7AE7000000000000F07FE2
:1055F0000000000000000000000000000000E03F8C
:10560000000000000000F0FFF0B5474680B48AB00B
:10561000041C0D1C01F024F8294A0023D35690469F
:10562000061C0F1C01330DD0201C291C01F0B4FFF7
:10563000002807D0201C291C204B1F4A02F0FEF92D
:10564000002805D1301C391C0AB004BC9046F0BDBE
:10565000012300931B4B04940595019300230893A9
:105660004346029403951C78002C0ED1134B124A2A
:1056700006920793684601F0BFFF00280FD0089BF1
:10568000002B11D1069E079FDCE70C490A48021C3B
:105690000B1C03F049FC06900791022CEAD104F0A0
:1056A000FBFE21230360EAE704F0F6FE089C046099
:1056B000E8E7C046C046C046000000000000000009
:1056C00012FEFF1FC4AA0000F0B55F4656464D46C5
:1056D0004446F0B499464B465C00934664088FB04C
:1056E0000D1C0F1C5A46211C0090061C824602937A
:1056F0005846114337D069004908884668490495DF
:1057000088452BDC28D066498C4227DC00D180E01C
:10571000002108910499002900DA7EE0002833D1A5
:105720005F4B9C4200D196E05E4B9C426AD002984F
:105730008023DB05984201D100F0E1FB5A4B02992E
:10574000994221D1049A002A1EDB291C009800F0FE
:1057500087FF061C0D1C08E0002ED4D0534A131CF2
:10576000434433430AD14F4D0026301C291C0FB04F
:105770003CBC90469946A246AB46F0BD4C4801F071
:105780003FFF061C0D1CF0E70098291C01F040FEAD
:10579000534606908C46002B20D0FB0F013B049310
:1057A000049E089B33436AD0424B9C4200DC8DE050
:1057B000414B9C4201DC00F035FC404B984500DC3D
:1057C00089E3029E002E00DC89E334493248021C42
:1057D0000B1C04F013F8061C0D1CC6E740460028FD
:1057E00004D0304BBA0092089A42D6D1029C002CC9
:1057F00001DA00F0C4FB049E002E00DA73E3069E7B
:105800006546B2E7029C002C01DA00F076FC009EAF
:10581000ABE7002800D17BE7A0E729498C422BDCCD
:1058200026498C4200DC79E721158C4625498C45B8
:1058300001DC00F086FC244B61465B1A111CD94048
:105840000A1C9A40824200D068E701220A400223E3
:105850009B1A089362E7154A131C4344334300D153
:1058600081E7164B984500DC7FE3029C002C00DAB0
:1058700035E35E464D4678E7022108914EE70098F1
:10588000009A291C2B1C04F049FA021C0B1C03F083
:105890004BFB061C0D1C68E79C7500883CE4377EBA
:1058A0000000F07F0000F03F0000E03F000010C06B
:1058B000C8AA00000000E0410000F043FFFFEF3FF6
:1058C000FFFF3F431304000033040000E24A0023BB
:1058D000904509DC0698C54BC34A614603F08EFF2C
:1058E0003523069088465B424046DC490215521833
:1058F000D21892460303DA4DDA4A1B0B1D4393423A
:1059000001DC00F0F6FBD84A934201DC00F036FCE3
:10591000D64B01229244ED1800240021069A2B1C3C
:1059200006920793C900D24B8846434418685968C9
:105930000A900B910A9A0B9B0698079904F0EEF9CE
:105940000A9A0B9B061C0F1C0698079902F0CAFFC7
:10595000021C0B1CA648A74903F0E6FA0C900D9117
:105960000C9A0D9B301C391C03F048FF02900391E8
:105970000B1C802189056D10802000220D4300033F
:10598000009201939C4A9D4B29180B19009801998C
:10599000141C1D1C03F032FF021C0B1C301C391C94
:1059A00004F0BCF90A9A0B9B061C0F1C201C291C36
:1059B00004F0B4F9021C0B1C0698079904F0AEF928
:1059C000021C0B1C0098019903F018FF021C0B1C11
:1059D000301C391C04F0A2F90C9A0D9B03F00EFF49
:1059E0000690079102980399021C0B1C03F006FF16
:1059F000041C0D1C221C2B1C03F000FF804A814B51
:105A0000061C0F1C201C291C03F0F8FE7E4A7F4B4D
:105A100002F068FF221C2B1C03F0F0FE7C4A7D4B39
:105A200002F060FF221C2B1C03F0E8FE7A4A7B4B3D
:105A300002F058FF221C2B1C03F0E0FE784A794B41
:105A400002F050FF221C2B1C03F0D8FE764A774B45
:105A500002F048FF021C0B1C301C391C03F0CEFE68
:105A6000029A039B041C0D1C0098019902F03AFF56
:105A7000069A079B03F0C2FE221C2B1C02F032FF89
:105A8000061C0F1C00980199021C0B1C03F0B6FEAB
:105A9000674A684B0A900B9102F024FF321C3B1CB2
:105AA00002F020FF00240D1C221C009801992B1CE1
:105AB00003F0A4FE221C2B1C00900191069807996C
:105AC00003F09CFE5A4A5B4B06900791201C291C50
:105AD00004F024F90A9A0B9B04F020F9021C0B1C19
